:020000040800F2
:10000000004000202D270008C1260008A508000890
:10001000BD26000821080008CD2C000800000000C3
:10002000000000000000000000000000352700086C
:100030009D08000800000000292700088D270008FF
:10004000A1080008A1080008B12C0008BD2C000878
:1000500025280008A1080008A1080008A108000838
:10006000A1080008A1080008A1080008A1080008CC
:10007000A1080008A1080008A1080008A1080008BC
:10008000A1080008A1080008A1080008A1080008AC
:10009000A1080008A1080008A1080008A10800089C
:1000A000A1080008A1080008A1080008A10800088C
:1000B000A1080008A1080008A1080008A10800087C
:1000C000A1080008A1080008A1080008A10800086C
:1000D000A1080008A1080008A1080008A10800085C
:1000E000A1080008A1080008A1080008A10800084C
:1000F000A1080008A1080008A1080008A10800083C
:10010000A1080008A1080008A1080008A10800082B
:10011000DFF80CD000F006FA00480047C1320008B2
:100120000040002030B50B4601460020202201246B
:1001300009E021FA02F59D4205D303FA02F5491BB5
:1001400004FA02F52844151EA2F10102F1DC30BDCB
:100150002DE9F05F0546002092469B4688460646FC
:10016000814640241BE0284641464746224600F08F
:10017000FAF953465A46C01A914110D3114618460F
:10018000224600F0E1F92D1A67EB01084F4622469E
:100190000120002100F0D8F917EB00094E41201E84
:1001A000A4F10104DFDC484631462A464346BDE857
:1001B000F09F2DE9FE4F804681EA0300C00F0C46F8
:1001C000009021F0004123F00045B8EB0200A94166
:1001D00005D24046214690461C460B46024623F077
:1001E0000040104347D0270DC7F30A00C3F30A515C
:1001F0000290401A019040286BDAC3F3130040F4D8
:10020000801B0098924620B10023D2EB030A63EBD7
:100210000B0B01985946C0F14002504600F094F98A
:1002200006460D4650465946019A00F0ACF910EBCF
:1002300008006141002487EA115284EAE7731A43F7
:1002400040D0009A62B3019A012A4FEA075215DCA6
:10025000001B61EB02014FF0004202EA0752CDE9B8
:100260000042001C41F5801132462B4600F0ACF9EB
:1002700003B0BDE8F08F40462146F9E7001B61EB73
:100280000201001C41F5801300185B412018A2F503
:10029000001747EB030140EAD570B6196D4111E034
:1002A0006D084FEA360645EAC0754FEA0752001B53
:1002B00061EB0201001C41F5801149084FEA300052
:1002C0000019514132462B4603B0BDE8F04F00F013
:1002D0006CB90098012240000023D0EB020263EBCE
:1002E000E073009821464FEAE074B8EB000061EB40
:1002F0000401E9E783F000435BE781F0004158E740
:100300002DE9FE4F81EA030404F0004421F000418E
:1003100000944FF0000B23F0004350EA01045ED03C
:1003200052EA03045BD0C3F30A54C1F30A552C44C8
:10033000A4F2F3340194A0FB0254C1F3130141F47D
:100340008011C3F3130343F4801301FB024400FB49
:10035000034E840A970A44EA815447EA8357A4FB70
:10036000076802958D0A05FB07854FEA932C04FB6D
:100370000C542705029D4FEA065847EA1637B5EB9D
:1003800008056EEB070C870E920E47EA811742EACA
:100390008312A7FB0201B6EB0B0164EB00042B0DEB
:1003A00043EA0C335E1844EB1C50DA465146E7FB37
:1003B0000201C5F313044FEA0B3343EA14534FEA27
:1003C0000432019C43EA0603A4F10C040294009C4D
:1003D000CDE900B400F0F8F803B0BDE8F08F0020DC
:1003E0000146F9E72DE9F04D81EA030404F0004BE2
:1003F00021F0004514464FF0000A23F0004150EA76
:10040000050220D054EA01021DD0C5F30A57024666
:10041000C5F31303C1F31300C1F30A5640F480156A
:1004200043F48013A7EB0608101BD64608F2FD38EC
:1004300073EB050002D308F1010801E092185B415B
:10044000B8F1000F03DA00200146BDE8F08D00206E
:100450004FF48011064684460EE0171B73EB050728
:1004600005D3121B63EB050306434CEA010C490854
:100470004FEA300092185B4150EA0107EDD152EA91
:10048000030012D082EA040083EA0501084305D084
:10049000101BAB4106D20122002306E000224FF0E0
:1004A000004302E06FF0010253101AEB06004CEB20
:1004B000085110EB0A0041EB0B01BDE8F04D00F0D4
:1004C00074B8C1F30A52C1F3130140F2FF3341F48F
:1004D00080119A4202DA00200146704740F233430D
:1004E0009A42A2F2334202DC524200F03CB800F0E1
:1004F0002BB8000030B5041E71F1000404DB4FF08E
:100500000044404264EB0101141E73F1000405DB5A
:100510001C464FF00043524263EB0403994208BF6C
:10052000904230BD064C074D06E0E06840F0010304
:1005300094E8070098471034AC42F6D3FFF7ECFD7F
:1005400080490008A0490008202A04DB203A00FA6C
:1005500002F1002070479140C2F1200320FA03F31A
:10056000194390407047202A04DB203A21FA02F018
:100570000021704721FA02F3D040C2F120029140DD
:10058000084319467047202A06DBCB17203A41FA68
:1005900002F043EAE07306E041FA02F3D040C2F110
:1005A0002002914008431946704710B5141E73F19C
:1005B000000408DA401C41F1000192185B411A4323
:1005C00001D120F0010010BD2DE9F04D92469B466F
:1005D00011B1B1FA81F202E0B0FA80F22032904615
:1005E000FFF7B2FF04460F4640EA0A0041EA0B015A
:1005F00053465A46084313D0114653EA010019D016
:10060000C8F140025046FFF7AEFF05460E46504681
:1006100059464246FFF798FF084305D0012004E001
:1006200020463946BDE8F08D0020054346EAE076D5
:100630002C4337430A986305E40AA0EB0800002224
:10064000FD0A44EA47540A3002D500200146E9E792
:10065000010510196941DDE9084500196941BDE846
:10066000F04DA2E770B521F0004303430CD0C1F375
:100670000A550024D5EB040564EB0403D617AD1A24
:10068000B34102DB0020014670BD201841EB02514E
:1006900070BD0EB5C10F80EAE0700844CA070021A2
:1006A00040F233438DE80E000A460B46FFF78CFFFD
:1006B00003B000BD0EB540F2334102910021CDE9F7
:1006C00000110A460B46FFF77FFF03B000BD70B56F
:1006D000C1F30A5201F000450024C1F3130140F2B6
:1006E000FF3341F480119A4201DA002070BD40F2DC
:1006F00033439A42A2F2334203DC5242FFF733FF04
:1007000000E090402C43F1D0404270BD40EA01032C
:100710009B0703D009E008C9121F08C0042AFAD2B7
:1007200003E011F8013B00F8013B521EF9D270477B
:10073000D2B201E000F8012B491EFBD27047002223
:10074000F6E710B513460A4604461946FFF7F0FFD0
:10075000204610BD00F0004230F000400AD0C10D2C
:1007600001F56071C0F3160042EA0151C20840076A
:100770001143704700200146704701F0004330B438
:1007800021F0004150EA010206D00A0DA2F5607284
:10079000C1F31301002A02DC30BC00207047440F73
:1007A00044EAC104C100E01830BC00EBC250AFF312
:1007B00000800029A8BF7047401C490008BF20F0F6
:1007C0000100704710B4B0FA80FC00FA0CF050EA57
:1007D000010404BF10BC704749B1CCF1200421FAD8
:1007E00004F411FA0CF118BF012121430843A3EBD3
:1007F0000C01CB1D4FEA00614FEA102042BF0020E0
:1008000010BC704700EBC35010440029A4BF10BCBB
:100810007047401C490008BF20F0010010BC704721
:10082000FFE7FEE740F29830C4F20200016821F0D1
:10083000010101601821C4F2020140F20142C0F23C
:1008400020020A601C21C4F202014FF480620A6097
:100850004021C4F202010A6822F400620A604421C5
:10086000C4F202014FF490620A600021C4F2020156
:100870004FF040220A6040F2B601C2F200010822A5
:10088000C4F2020211600121016040F2A030C4F202
:10089000020040F201110160704700007047000043
:1008A000FFE7FEE7FFE7FEE781B0009040F68060DB
:1008B000CEF200000068C007A8B1FFE740F6006074
:1008C000CEF200000068C00768B1FFE7FFE74FF015
:1008D0006040006810B9FFE700BFF8E700984FF0EC
:1008E00060410870FFE701B07047000080B584B038
:1008F00049F20002C4F201020292ADF80600ADF81E
:1009000004100298C0B9FFE7FFE744F2A360C0F605
:10091000000002F0E3FC44F2E450C0F6000002F0F4
:10092000DDFC44F61400C0F6000002F0D7FCFFE73F
:1009300001208DF80F0023E0029840686FF31D40FE
:10094000BDF806106FF39F3140EA014002994860FC
:10095000029840684FF6FF718843BDF804100844C0
:10096000029948600298016841F002010160029812
:10097000016841F00101016000208DF80F00FFE7E0
:1009800004B080BD80B582B049F20000C4F201001D
:100990000190019800F002F802B080BD80B582B0ED
:1009A0000190019849F20001C4F20101884211D07E
:1009B000FFE701984AF20001C4F20101884209D020
:1009C000FFE701984BF20001C4F20101884201D017
:1009D000FFE722E0019849F20001C4F201018842D8
:1009E00003D1FFE700F0C6FB17E001984AF20001CF
:1009F000C4F20101884203D1FFE700F0CFFB0BE016
:100A000001984BF20001C4F20101884203D1FFE7D3
:100A100000F0D8FBFFE7FFE7FFE702B080BD000072
:100A200080B584B00390029100200190039844F2B5
:100A30000001C4F20201884218D0FFE7039845F292
:100A40000001C4F20201884210D0FFE7039846F289
:100A50000001C4F20201884208D0FFE7039847F280
:100A60000001C4F20201884201D1FFE707E044F22D
:100A70000A70C0F600004D2102F0FAFBFFE7029871
:100A8000008828B1FFE70298408808B9FFE707E02F
:100A900044F20A70C0F600004E2102F0E9FBFFE7C5
:100AA000FFE7029800680199C840002800F02781FC
:100AB000FFE7029800680199012202FA01F108405B
:100AC00000900098002800F01681FFE70298406827
:100AD00000F00300002841D0FFE7012800F08D80DE
:100AE000FFE7022840F0BF80FFE7039801996FF00D
:100AF000030C0CEA51010844006C019901F0070352
:100B00009B000F229A409043029AD27A02F00F0281
:100B10009A401043039A0CEA510111440864039867
:100B200080690199012202FA01F39843029B1B7A22
:100B300003F0010303FA01F1084303998861039864
:100B4000C06901998A409043029A927A02F00102A8
:100B500002FA01F108430399C86184E003980199FE
:100B60006FF0030C0CEA51010844006C019901F08C
:100B700007039B000F229A409043039A0CEA51010D
:100B8000114408640398416A019A012000FA02F3B3
:100B90009943029B5B68C3F3007303FA02F21143AB
:100BA000039A51620399896A019A00FA02F3994300
:100BB000029B5B68C3F3005303FA02F21143039AEA
:100BC00091620399896A019A103200FA02F39943FB
:100BD000029B5B68C3F3405303FA02F21143039A8A
:100BE00091620399496A002918BF0121039A116291
:100BF000019988400399C86235E0039801996FF024
:100C0000030C0CEA51010844006C019901F0070340
:100C10009B000F229A409043012202FA03F31843EB
:100C2000039B0CEA510119440864039880690199F7
:100C300002FA01F39843029B1B7A03F0010303FAC3
:100C400001F10843039988610398C06901998A40BA
:100C50009043029A927A02F0010202FA01F10843EB
:100C60000399C861FFE7009803994A6910434861F6
:100C70000298407A012811D1FFE70198012101FA79
:100C800000F0039A936818439060019801FA00F00D
:100C90000399CA6822EA0000C860FFE70298407A18
:100CA000022811D1FFE70198012101FA00F0039A0F
:100CB000936823EA00009060019801FA00F003991C
:100CC000CA681043C860FFE70298407A90B9FFE70E
:100CD0000198012101FA00F0039A936823EA0000C9
:100CE0009060019801FA00F00399CA6822EA0000B6
:100CF000C860FFE7FFE7019801300190D1E604B03A
:100D000080BD000040F2C040C2F200000168013125
:100D10000160704780B549F20000C4F2020001682A
:100D200041F480710160016841F40071016000F0DC
:100D30008DF800F003F800F029F880BD80B582B08E
:100D40000720009000F010FD44F6D351C1F262017B
:100D5000A0FB0101880900F033FF20B1FFE701206B
:100D60008DF807000FE00098072804D8FFE70098E7
:100D700000F038F803E001208DF8070003E00020C0
:100D80008DF80700FFE702B080BD000080B500F0DD
:100D9000D5FA00F02BFA00F045FA00F05FFA00F007
:100DA00079FA00F051F9152000F004F800F0BEF9CE
:100DB00080BD000080B582B08DF807009DF9070066
:100DC000002801D4FFE707E044F2BD70C0F6000040
:100DD000F52102F04DFAFFE79DF9070002F0E6F970
:100DE00002B080BD10B584B0FF218DF80F100290C5
:100DF0000020019000900198072801D8FFE707E044
:100E000044F2BD70C0F60000BC2102F031FAFFE7E9
:100E10000298072801D8FFE707E044F2BD70C0F64A
:100E20000000BD2102F024FAFFE702F0D9F900909A
:100E30009DF90F4000980299019A01F043FC014688
:100E4000204602F0D5F904B010BD000080B582B094
:100E500004200190019807280CD0FFE7019806288C
:100E600008D0FFE70198052804D0FFE7019804287F
:100E700001D1FFE707E044F2BD70C0F60000892110
:100E800002F0F6F9FFE7019802F0D4F902B080BD54
:100E900080B500F069FC80BD80B5FFF7F9FF43F233
:100EA0001401C4F202010968C9B20131B0FBF1F0CA
:100EB00080BD000010B584B0002003900290019026
:100EC00049F2500EC4F2020E4DF2C432CFF2E212D9
:100ED000CEF8002042F63D42C0F61B22CEF800209C
:100EE00043F2800CC4F2020C43F64A43C1F62E735F
:100EF000CCF8003044F20003C0F601031B68013354
:100F0000B3FA83F35B091B010093009B44F20022B8
:100F1000C0F601029A580392039A02F01F0202924D
:100F2000039AC2F34512019243F20013C4F2020382
:100F30001A684FF68371CFF607611140029A92004A
:100F4000019C42EAC44211431960009944F2042210
:100F5000C0F6010289580391039943F20412C4F2C6
:100F600002021160009944F20822C0F60102895879
:100F70000391039943F20812C4F20202116000992E
:100F800044F20C22C0F6010289580391039943F2FE
:100F90000C12C4F202021160009944F21022C0F651
:100FA000010289580391039943F21012C4F202021C
:100FB0001160009944F21422C0F60102895803918D
:100FC000039943F21412C4F202021160009944F230
:100FD0001822C0F6010289580391039943F21812AE
:100FE000C4F202021160009944F21C22C0F6010210
:100FF00089580391039943F21C12C4F20202116052
:10100000009944F22022C0F6010289580391039905
:1010100043F22012C4F202021160009944F2242229
:10102000C0F6010289580391039943F22412C4F2D5
:1010300002021160196821F001011960CCF800006A
:10104000CEF8000004B010BD43F28000C4F20200EC
:1010500048F2E471C3F6AC71016043F23801C4F2A6
:1010600002010A6842F001020A6043F24C01C4F234
:1010700002010A6842F001020A6000210160704723
:1010800080B582B020208DF806000920ADF804005C
:10109000BDF80400012805DBFFE7BDF804001128B6
:1010A0001ADBFFE7FFE744F2AD60C0F6000002F094
:1010B00015F9BDF8041044F2A650C0F6000002F085
:1010C0000DF944F61400C0F6000002F007F9FFE73E
:1010D00001208DF8070027E043F28000C4F20200EF
:1010E00048F2E471C3F6AC71016043F21801C4F236
:1010F00002010A6822F060029DF806301A430A6075
:1011000043F22001C4F202010A6822F0F002BDF8A5
:101110000430013B03F00F0342EA03120A6000218E
:1011200001608DF80710FFE702B080BD43F2800038
:10113000C4F2020048F2E471C3F6AC71016043F2FC
:101140003801C4F202010A6842F480520A6043F294
:101150003C01C4F202010A6842F001020A6043F253
:101160004C01C4F202010A6842F004020A60002144
:101170000160704743F28000C4F2020048F2E4715B
:10118000C3F6AC71016043F24801C4F202010A687F
:1011900042F400720A6000210160704743F280004F
:1011A000C4F2020048F2E471C3F6AC71016043F28C
:1011B0004801C4F202010A6842F480620A60002118
:1011C0000160704743F28000C4F2020048F2E4710B
:1011D000C3F6AC71016043F24801C4F202010A682F
:1011E00042F400620A6000210160704743F280000F
:1011F000C4F2020048F2E471C3F6AC71016043F23C
:101200003801C4F202010A6842F008020A6043F29F
:101210004C01C4F202010A6842F480720A600021A3
:101220000160704743F28000C4F2020048F2E471AA
:10123000C3F6AC71016043F23801C4F202010A68DE
:1012400042F010020A6043F24C01C4F202010A6843
:1012500042F400720A6000210160704743F280008E
:10126000C4F2020048F2E471C3F6AC71016043F2CB
:101270003801C4F202010A6842F020020A6043F217
:101280004C01C4F202010A6842F480620A60002143
:101290000160704743F28000C4F2020048F2E4713A
:1012A000C3F6AC71016043F23801C4F202010A686E
:1012B00042F040020A6043F24C01C4F202010A68A3
:1012C00042F400620A6000210160704743F280002E
:1012D000C4F2020048F2E471C3F6AC71016043F25B
:1012E0003801C4F202010A6842F004020A6043F2C3
:1012F0004C01C4F202010A6842F480520A600021E3
:101300000160704743F28000C4F2020048F2E471C9
:10131000C3F6AC71016043F23001C4F202010A6805
:1013200042F480520A6043F24401C4F202010A68A6
:1013300042F480520A6000210160704743F280004D
:10134000C4F2020043F64A41C1F62E71016043F235
:101350000011C4F202010A6822F002020A600021B0
:101360000160704770B58AB0089007910020ADF811
:101370000A00ADF80800089818B1FFE70798C0B94F
:10138000FFE7FFE744F2AD60C0F6000001F0A6FF02
:1013900044F2C950C0F6000001F0A0FF44F614006A
:1013A000C0F6000001F09AFFFFE701208DF827004A
:1013B000D6E100208DF81B00FFE79DF81B000E28EA
:1013C00000F28980FFE79DF81B0000EB400044F627
:1013D0001801C0F6000151F83000079949688842A9
:1013E00072D1FFE702208DF81A00FFE79DF81A007E
:1013F000102833DCFFE79DF81B0000EB400044F6AB
:101400001801C0F6000101EBC00040689DF81A10F9
:10141000B0FBF1F007998968884218D1FFE79DF881
:101420001B0000EB400044F61801C0F6000101EB80
:10143000C00040689DF81A10B0FBF1F202FB1100E9
:1014400028B9FFE79DF81A00ADF80A0007E0FFE7AA
:101450009DF81A0001308DF81A00C7E7FFE7BDF8C4
:101460000A0080B3FFE79DF81B0000EB400044F644
:101470001801C0F6000101EBC000007AADF80800C9
:101480009DF81B0000EB400001EBC0004089ADF867
:1014900018009DF81B0000EB400001EBC0008089A4
:1014A000ADF816009DF81B0000EB400001EBC000FA
:1014B000006904909DF81B0000EB400001EBC000A8
:1014C0004069039008E0FFE7FFE79DF81B0001304B
:1014D0008DF81B0071E7FFE79DF81B000F286CD10A
:1014E000FFE707980078012807D1FFE70898D0F8B0
:1014F0000401000A07994860FFE707984068002840
:101500003FD0FFE7079844688068FFF7D3F80546A7
:101510000E462046FFF7CEF802460B4628463146D7
:10152000FEF760FF0191009000980199FFF7CFF856
:10153000ADF81800009C019DBDF81800FFF7A9F850
:1015400002460B4620462946FEF7D4FE0023C4F28D
:10155000F0030022FEF7D4FEFFF7B9F8ADF816004D
:101560000120ADF808000220ADF80A000898D0F874
:10157000040100F00300400504904FF400200390A4
:101580001AE0FFE744F2AD60C0F6000001F0A6FEED
:1015900007984168826844F21E60C0F6000001F0BE
:1015A0009DFE44F61400C0F6000001F097FEFFE730
:1015B00001208DF82700D3E0FFE7089848F2E47196
:1015C000C3F6AC71C0F880100798007830B1FFE71F
:1015D00001280DD0FFE7032817D01DE0089800F080
:1015E000C5FA0898006820F00300089908602DE00B
:1015F0000898016E41F48011016608980068012185
:1016000061F301000899086020E00898006840F044
:1016100003000899086019E0FFE744F2AD60C0F6E6
:10162000000001F05BFE0798017844F26050C0F6BC
:10163000000001F053FE44F61400C0F6000001F073
:101640004DFEFFE701208DF8270089E0BDF8080076
:10165000012806D1FFE70898016841F00801016000
:1016600022E0BDF80800022806D1FFE708980168CB
:1016700021F00801016016E0FFE744F2AD60C0F61A
:10168000000001F02BFEBDF8081044F23F50C0F6F8
:10169000000001F023FE44F61400C0F6000001F043
:1016A0001DFEFFE7FFE7FFE7BDF80A00022813DB96
:1016B000FFE7BDF80A0010280EDCFFE70898006875
:1016C00020F0F000BDF80A10013901F00F0140EAE6
:1016D00001100899086016E0FFE744F2AD60C0F61B
:1016E000000001F0FBFDBDF80A1044F21D50C0F6E9
:1016F000000001F0F3FD44F61400C0F6000001F014
:10170000EDFDFFE7FFE7BDF81800BDF81610FFF785
:10171000EDF80898006820F4C0000499084308997F
:1017200008600898006820F440200399084308994D
:1017300008600898016841F000410160FFE70898DF
:10174000006800F080400021B1EB907F01D1FFE7FD
:10175000F5E708980021C0F880108DF82710FFE702
:101760009DF827000AB070BD40F20800C2F20000E8
:101770000068704780B588B043F20001C4F20201EE
:101780000691059001208DF80300069818B1FFE737
:101790000598C0B9FFE7FFE744F2AD60C0F600006E
:1017A00001F09CFD44F20360C0F6000001F096FDDC
:1017B00044F61400C0F6000001F090FDFFE70120A0
:1017C0008DF81F0095E10598C06808B1FFE707E0B4
:1017D00044F2CB60C0F600008E2101F049FDFFE726
:1017E0000598007828B9FFE705984FF4FA41416061
:1017F00046E005980078012809D1FFE743F204107C
:10180000C4F202000068000A0599486037E00598B4
:10181000007803280CD1FFE70598406838B9FFE746
:10182000059841F20021C0F27A014160FFE725E00E
:1018300005980078022820D1FFE70598407860B924
:10184000FFE70598806838B9FFE7059841F2002165
:10185000C0F27A018160FFE70EE005984078012828
:1018600009D1FFE743F20410C4F202000068000A45
:1018700005998860FFE7FFE7FFE7FFE7FFE7FFE77E
:101880000598008A20B9FFE7059801210182FFE74A
:101890000598408A20B9FFE7059801214182FFE7BA
:1018A00005980078022834D0FFE705984168C068A1
:1018B000B1FBF0F0ADF8120005984168C068B1FBCB
:1018C000F0F202FB1010ADF81000BDF8120020B1CC
:1018D000FFE7BDF81000D8B1FFE7FFE744F2AD60C5
:1018E000C0F6000001F0FAFC05984268C16844F2B5
:1018F000A840C0F6000001F0F1FC44F61400C0F668
:10190000000001F0EBFCFFE701208DF81F00F0E084
:10191000FFE7069848F2E471C3F6AC71C0F8801096
:1019200005980078032800F27980DFE800F00218BB
:10193000345E0698006920F0030006990861069855
:10194000006920F47F00BDF812100139C9B240EAE5
:1019500001400699086100208DF8030078E00698A0
:10196000016E41F48011016606980069012161F35E
:101970000100069908610698006920F47F00BDF80F
:1019800012100139C9B240EA0140069908610020ED
:101990008DF803005CE0059840788DF80400059808
:1019A000806802900598C0680390069801A9FFF727
:1019B000D9FC8DF80300069848F2E471C3F6AC71C7
:1019C000C0F880109DF8030070B9FFE70698006921
:1019D000022161F30100069908610698006920F46C
:1019E0007F0006990861FFE732E0069800F0BEF834
:1019F0000698006940F0030006990861069800699E
:101A000020F47F00BDF812100139C9B240EA01404C
:101A10000699086100208DF8030019E0FFE744F201
:101A2000AD60C0F6000001F059FC0598017844F261
:101A30008450C0F6000001F051FC44F61400C0F6DA
:101A4000000001F04BFCFFE701208DF80300FFE7E9
:101A50009DF80300002843D1FFE7069840690599E7
:101A6000098A013961F307000699486106984069BF
:101A700020F47F400599498A0139C9B240EA012022
:101A8000069948610698416941F400314161069820
:101A9000416941F4802141610698416941F48031F6
:101AA00041610698016C41F0040101640698016CE3
:101AB00041F0080101640698016C41F001010164E4
:101AC0000698816B41F4002181630698816B41F493
:101AD000802181630698816B41F400318163FFE7C7
:101AE00006980021C0F880109DF803008DF81F00B3
:101AF000FFE79DF81F0008B080BD000043F28000A2
:101B0000C4F2020048F2E471C3F6AC71016043F222
:101B10003001C4F202010A6842F010020A6043F286
:101B20004401C4F202010A6842F010020A60002176
:101B30000160704743F28000C4F2020048F2E47191
:101B4000C3F6AC71016043F23001C4F202010A68CD
:101B500042F020020A6043F24401C4F202010A6822
:101B600042F020020A6000210160704780B582B017
:101B700001900198D0F8800048F2E471C3F6AC718E
:101B8000884215D0FFE7FFE744F2AD60C0F60000E1
:101B900001F0A4FB44F2D640C0F6000001F09EFB29
:101BA00044F61400C0F6000001F098FBFFE705E0E2
:101BB0000198016E41F001010166FFE702B080BDAE
:101BC00080B582B00190019800F0B6FD02B080BDF2
:101BD00080B5AFF3008080BD80B582B001900198E0
:101BE000806A40F21001C2F200010968401A40F216
:101BF0000401C2F200010968884209D2FFE7019896
:101C0000806A40F21001C2F200010968401A05E042
:101C100040F20400C2F200000068FFE740F2040155
:101C2000C2F2000108600198806A40F21001C2F21D
:101C3000000108600198406810F0060F07D0FFE728
:101C40000198406820F006000199486007E001987B
:101C50004068012161F3420001994860FFE740F2CA
:101C60000C00C2F2000001780131017000780828F0
:101C700035D1FFE740F20800C2F200000068019988
:101C8000C96A0131B0FBF1F040F20401C2F2000177
:101C90000968B0FBF1F00090FFE744F2BA60C0F6CB
:101CA000000001F01BFB009944F28D60C0F60000BB
:101CB00001F014FB44F61400C0F6000001F00EFB26
:101CC000FFE740F20C00C2F200000021017040F278
:101CD0000400C2F200004FF0FF310160FFE702B0E4
:101CE00080BD000081B0009001B0704780B582B027
:101CF0004CF20000C4F2000001900199814238D0FA
:101D0000FFE701984CF20011C4F20001884230D084
:101D1000FFE701984CF20021C4F20001884228D06C
:101D2000FFE701984CF20031C4F20001884220D054
:101D3000FFE7019848F20001C4F20201884218D07E
:101D4000FFE7019848F20011C4F20201884210D066
:101D5000FFE7019848F20021C4F20201884208D04E
:101D6000FFE7019848F20031C4F20201884201D134
:101D7000FFE708E044F24670C0F600004FF404713B
:101D800001F076FAFFE70198006800F40070002186
:101D9000B1EB502F0CD0FFE701980069C00738B1B4
:101DA000FFE7019801210161019800F0A5FAFFE722
:101DB0000198006800F480700021B1EB102F10D062
:101DC000FFE70198006900F010000021B1EB101F3F
:101DD00007D0FFE7019810210161019800F080FA17
:101DE000FFE70198406800F480700021B1EB102FEC
:101DF00010D0FFE70198006900F004000021B1EB6A
:101E0000900F07D0FFE70198042101610198FFF7C7
:101E1000E3FEFFE70198406800F400700021B1EB99
:101E2000502F10D0FFE70198006900F00800002152
:101E3000B1EBD00F07D0FFE70198082101610198AD
:101E4000FFF750FFFFE70198406800F48060002131
:101E5000B1EB902F10D0FFE70198006900F002006D
:101E60000021B1EB500F07D0FFE70198022101617B
:101E7000019800F0B7F9FFE702B080BD80B582B0ED
:101E80000190009101984CF20001C4F200018842D7
:101E900038D0FFE701984CF20011C4F200018842EB
:101EA00030D0FFE701984CF20021C4F200018842D3
:101EB00028D0FFE701984CF20031C4F200018842BB
:101EC00020D0FFE7019848F20001C4F202018842E5
:101ED00018D0FFE7019848F20011C4F202018842CD
:101EE00010D0FFE7019848F20021C4F202018842B5
:101EF00008D0FFE7019848F20031C4F2020188429D
:101F000001D1FFE707E044F24670C0F6000061210E
:101F100001F0AEF9FFE7009808B1FFE707E044F2EF
:101F20004670C0F60000622101F0A2F9FFE70098B8
:101F3000007D012805D1FFE70098007F012801D02E
:101F4000FFE707E044F24670C0F60000642101F0AC
:101F50008FF9FFE7019800F01FF80198416821F020
:101F6000010141600198016821F0010101600198BF
:101F7000009900F001FE01980099143100F0C2FCB4
:101F8000019800991C3100F03FFD0198009928311B
:101F900000F04CFC02B080BD80B584B00390039883
:101FA0004CF20001C4F20001884239D0FFE70398E7
:101FB0004CF20011C4F20001884231D0FFE70398CF
:101FC0004CF20021C4F20001884229D0FFE70398B7
:101FD0004CF20031C4F20001884221D0FFE703989F
:101FE00048F20001C4F20201884219D0FFE70398C9
:101FF00048F20011C4F20201884211D0FFE70398B1
:1020000048F20021C4F20201884209D0FFE7039898
:1020100048F20031C4F20201884201D0FFE7DFE05C
:102020000220019000208DF808008DF809008DF83D
:102030000A0003984CF20001C4F20001884212D158
:10204000FFE70220009004208DF80B0044F200000E
:10205000C4F202006946FEF7E3FCFFF753F90420DF
:10206000FEF7A8FEBCE003984CF20011C4F2000198
:10207000884212D1FFE70820009004208DF80B0061
:1020800044F20000C4F202006946FEF7C9FCFFF703
:1020900039F90520FEF78EFEA1E003984CF20021ED
:1020A000C4F20001884212D1FFE7402000900420D2
:1020B0008DF80B0044F20000C4F202006946FEF7FE
:1020C000AFFCFFF71FF90620FEF774FE86E00398C9
:1020D0004CF20031C4F20001884212D1FFE78020A7
:1020E000009004208DF80B0044F20000C4F20200BE
:1020F0006946FEF795FCFFF705F90720FEF75AFE43
:102100006BE0039848F20001C4F20201884212D148
:10211000FFE72020009005208DF80B0044F200001E
:10212000C4F202006946FEF77BFCFFF7CFF80920F6
:10213000FEF740FE50E0039848F20011C4F202019D
:10214000884212D1FFE70120009006208DF80B0095
:1021500045F20000C4F202006946FEF761FCFFF799
:10216000B5F80A20FEF726FE35E0039848F2002174
:10217000C4F20201884212D1FFE70220009006203B
:102180008DF80B0045F20000C4F202006946FEF72C
:1021900047FCFFF79BF80B20FEF70CFE1AE00398B4
:1021A00048F20031C4F20201884212D1FFE7082050
:1021B000009006208DF80B0046F20000C4F20200E9
:1021C0006946FEF72DFCFFF781F80C20FEF7F2FDC3
:1021D000FFE7FFE7FFE7FFE7FFE7FFE7FFE7FFE7CF
:1021E00004B080BD81B0009001B0704780B582B06E
:1021F0004CF20000C4F2000001900199814238D0F5
:10220000FFE701984CF20011C4F20001884230D07F
:10221000FFE701984CF20021C4F20001884228D067
:10222000FFE701984CF20031C4F20001884220D04F
:10223000FFE7019848F20001C4F20201884218D079
:10224000FFE7019848F20011C4F20201884210D061
:10225000FFE7019848F20021C4F20201884208D049
:10226000FFE7019848F20031C4F20201884201D12F
:10227000FFE708E044F24670C0F600004FF4B27188
:1022800000F0F6FFFFE70198006800F00200022866
:1022900006D0FFE70198016841F400710160FFE793
:1022A00001984068C00798B1FFE7019840680007AF
:1022B000002806D5FFE70198416841F4407141606C
:1022C00005E00198416841F480614160FFE7FFE764
:1022D0000198016841F00101016002B080BD000079
:1022E00081B0009040F2B840C2F200000188013194
:1022F000018001B07047000081B0009001B07047CC
:1023000081B0009001B0704781B0009001B070477B
:1023100081B0009001B0704781B0009001B070476B
:1023200080B582B001900198806800F00F008DF8B0
:1023300003009DF803000C2820D8DFE800F0071FF9
:102340000B1F0F1F13171F1F1F1F1B00019800F0EB
:10235000D3F817E0019800F0ADF913E0019800F010
:102360005DF90FE0019800F067F90BE00198FFF7C5
:10237000CBFF07E00198FFF7CBFF03E0019800F0E7
:1023800051F9FFE702B080BD80B584B0039002919F
:10239000039800F0B5F80298807930B9FFE7039808
:1023A000C16821F00801C16018E00398C16841F0DC
:1023B0000801C160FFE702988079012806D1FFE794
:1023C0000398C16821F01001C16005E00398C1685D
:1023D00041F01001C160FFE7FFE7FFE7FFE7029868
:1023E000407930B9FFE70398C16821F00401C1606A
:1023F00005E00398C16841F00401C160FFE7FFE711
:1024000002980079042836D1FFE70398D0F8CC1061
:1024100041F00101C0F8CC100398D0F8C40020F0BE
:10242000FF000299897A08440399C1F8C400029810
:10243000407AC00778B1FFE70398D0F8CC1041F09C
:102440000201C0F8CC100398D0F8CC1021F008019C
:10245000C0F8CC100EE00398D0F8CC1021F00201A7
:10246000C0F8CC100398D0F8CC1041F00801C0F8A7
:10247000CC10FFE70FE00398D0F8CC1021F0010159
:10248000C0F8CC100398C0680299097961F3010083
:102490000399C860FFE70298C179007A084340F0C9
:1024A0000700039988600398C16841F08001C1600A
:1024B000FEF7F2FC0299096800EB5100B0FBF1F065
:1024C00001900198C0F30710039908600198C0F3C8
:1024D0000730039948600398D0F8C000019961F370
:1024E00003000399C1F8C0000398C16821F080017E
:1024F000C16004B080BD000081B0009001B07047A1
:1025000070B584B003900398B0F1402F09D0FFE775
:10251000039845F20001C4F20001884201D0FFE7B0
:1025200052E00398B0F1402F29D1FFE780200090BE
:10253000022501950A268DF80B6046F20000C4F2D0
:1025400002006C462146FEF76BFA4FF440600090A3
:10255000019500208DF808008DF809008DF80A001B
:102560008DF80B6044F20000C4F202002146FEF731
:1025700057FAFFF7C3FA0220FEF71CFC24E0039889
:1025800045F20001C4F2000188421CD1FFE74FF47C
:10259000407000900220019000208DF808008DF816
:1025A00009008DF80A000A208DF80B0045F20000A2
:1025B000C4F202006946FEF733FAFFF7BBFA0320C4
:1025C000FEF7F8FBFFE7FFE704B070BD81B00090B5
:1025D00001B0704780B582B04FF040200190019863
:1025E000B0F1402F08D0FFE7019845F20001C4F296
:1025F0000001884201D1FFE708E044F28170C0F693
:1026000000004FF4B97100F033FEFFE70198416814
:1026100041F00101416002B080BD000081B0009036
:1026200001B0704781B0009040F2B640C2F20000A5
:102630000121017001B0704780B582B0019001980E
:1026400040696FF35F2000909DF8000000060028AD
:1026500029D5FFE79DF80000C006002804D5FFE754
:102660000198FFF74DFEFFE79DF8000000070028E6
:1026700004D5FFE70198FFF74FFEFFE79DF8000044
:102680004007002804D5FFE70198FFF79FFFFFE709
:102690009DF800008007002804D5FFE7019800F0AE
:1026A00005F8FFE7FFE702B080BD000081B00090B1
:1026B00001B0704781B0009001B07047FFE7FEE7BE
:1026C0007047000086B0059004910392059800F0D1
:1026D000070002900298C0F10700042802D3FFE728
:1026E000032003E00298C0F10700FFE70190029881
:1026F0000330062802D8FFE7002002E002980438E1
:10270000FFE7009004980199012202FA01F10139D2
:10271000084000998840039B02FA01F101391940F1
:10272000084306B0704700007047000000F06CF8E6
:10273000FDF7EEFC7047000010B582B000900098E5
:102740000138B0F1807F03D3FFE70120019019E049
:10275000009801384EF21401CEF2000108600724FF
:102760004FF0FF30072100F043FD4EF21800CEF28B
:102770000000002101604EF21000CEF20000046063
:102780000191FFE7019802B010BD000080B5FEF78F
:10279000B9FAFFF71DFA80BD80B586B0FEF7F2F8F2
:1027A00002208DF8000044F68020C0F25D500390B6
:1027B00000208DF8010041F20020C0F27A00029062
:1027C0000120ADF81000ADF812006846FEF7D2FF08
:1027D0008DF817009DF8170020B9FFE7039800F067
:1027E00005F8FFE7FEF74CFC06B080BD81B0009015
:1027F000009838B1FFE7009840F20801C2F20001EA
:102800000860FFE701B0704780B5FEF753FB40F268
:102810000000C0F600004EF60851CEF2000108603C
:1028200080BD000080B5FFF761FA80BD80B582B041
:102830000190009101984CF20001C4F2000188421D
:1028400038D0FFE701984CF20011C4F20001884231
:1028500030D0FFE701984CF20021C4F20001884219
:1028600028D0FFE701984CF20031C4F20001884201
:1028700020D0FFE7019848F20001C4F2020188422B
:1028800018D0FFE7019848F20011C4F20201884213
:1028900010D0FFE7019848F20021C4F202018842FB
:1028A00008D0FFE7019848F20031C4F202018842E3
:1028B00001D1FFE708E044F24670C0F6000040F2A4
:1028C000113100F0D5FCFFE700980078012812D103
:1028D000FFE70198406B4FF2F131884300994A8835
:1028E0008B881A438979114308434FF2F00108435A
:1028F0000199486303E0019800214163FFE702B0BA
:1029000080BD000080B582B00190009101984CF22A
:102910000001C4F20001884238D0FFE701984CF270
:102920000011C4F20001884230D0FFE701984CF258
:102930000021C4F20001884228D0FFE701984CF240
:102940000031C4F20001884220D0FFE7019848F22C
:102950000001C4F20201884218D0FFE7019848F252
:102960000011C4F20201884210D0FFE7019848F23A
:102970000021C4F20201884208D0FFE7019848F222
:102980000031C4F20201884201D1FFE708E044F2BD
:102990004670C0F6000040F2CB2100F069FCFFE772
:1029A0000098007801282CD1FFE70198006810F406
:1029B000405F26D1FFE700984068FF2801D8FFE775
:1029C00008E044F24670C0F6000040F2D12100F069
:1029D0004FFCFFE7009840680199C8600198406883
:1029E00020F0E60000994A7889781143084340F0C6
:1029F0000800019948600198416841F00101416077
:102A0000FFE702B080BD000080B582B00190009168
:102A100001984CF20001C4F20001884238D0FFE76F
:102A200001984CF20011C4F20001884230D0FFE757
:102A300001984CF20021C4F20001884228D0FFE73F
:102A400001984CF20031C4F20001884220D0FFE727
:102A5000019848F20001C4F20201884218D0FFE751
:102A6000019848F20011C4F20201884210D0FFE739
:102A7000019848F20021C4F20201884208D0FFE721
:102A8000019848F20031C4F20201884201D1FFE707
:102A900008E044F24670C0F6000040F2E92100F080
:102AA000E7FBFFE700980078012863D1FFE7019872
:102AB000006810F4405F5DD1FFE701984CF200011F
:102AC000C4F20001884218D0FFE701984CF20011CF
:102AD000C4F20001884210D0FFE701984CF20021B7
:102AE000C4F20001884208D0FFE701984CF200319F
:102AF000C4F2000188420FD1FFE70098408908B96D
:102B0000FFE708E044F24670C0F6000040F2F12111
:102B100000F0AEFBFFE710E000988068B0F1FF3FE7
:102B200001D8FFE708E044F24670C0F6000040F22A
:102B3000F52100F09DFBFFE7FFE70198416821F0D8
:102B4000100141600098806801998862019840688E
:102B500047F21E01884300998A884B7889781A4386
:102B600011430843019948600198416841F001010F
:102B70004160FFE702B080BD80B582B00190009156
:102B800001984CF20001C4F20001884218D0FFE71E
:102B900001984CF20011C4F20001884210D0FFE706
:102BA00001984CF20021C4F20001884208D0FFE7EE
:102BB00001984CF20031C4F2000188422BD1FFE7AA
:102BC0000098C08808B9FFE708E044F24670C0F6F4
:102BD00000004FF42A7100F04BFBFFE70098C0891A
:102BE00008B9FFE708E044F24670C0F6000040F282
:102BF000A92100F03DFBFFE70098408908B9FFE7F5
:102C000008E044F24670C0F6000040F2AA2100F04D
:102C10002FFBFFE730E000984068B0F1FF3F01D89C
:102C2000FFE708E044F24670C0F6000040F2AE2133
:102C300000F01EFBFFE70098C068B0F1FF3F01D82D
:102C4000FFE708E044F24670C0F6000040F2AF2112
:102C500000F00EFBFFE700988068B0F1FF3F01D85D
:102C6000FFE708E044F24670C0F600004FF42C7114
:102C700000F0FEFAFFE7FFE700988068019908621C
:102C80000098C06801994862009840680199C8623C
:102C900000980188027C437C90F812C0C07C1943E4
:102CA0001143084340EA0C000199086002B080BD5E
:102CB00080B54FF04020FFF733FB80BD80B545F273
:102CC0000000C4F20000FFF72BFB80BDFFE7FEE72A
:102CD00080B588B002208DF81F009DF81F0008B94C
:102CE000FFE746E09DF81F0040F2BA41C2F2000142
:102CF00008709DF81F00012815D1FFE708200490F7
:102D00000220059000218DF818108DF819108DF80B
:102D10001A108DF81B0045F20000C4F2020004A94D
:102D2000FDF77EFE25E000200390029001904FF415
:102D3000E131019103218DF808108DF809008DF81B
:102D40000A008DF80B008DF80C009DF81F0045F26D
:102D50000001C4F20001022808BF4FF0402140F2F8
:102D6000BC40C2F200000160006801A9FFF70CFB43
:102D7000FFE708B080BD000080B582B0ADF8060066
:102D800040F2BA40C2F20000007808B9FFE726E03E
:102D900040F2BA40C2F200000078012805D1FFE7F6
:102DA000BDF80600FDF780FD19E0FFE740F2BC40EA
:102DB000C2F200000068C06F00F002000021B1EB19
:102DC000500F01D1FFE7F1E7BDF806006FF35F2078
:102DD00040F2BC41C2F2000109680860FFE702B09E
:102DE00080BD000010B58EB04CF20000C4F20000AF
:102DF0000D9001AC20463021FDF7A1FC0020ADF87C
:102E000004008DF81400039040F6FE7104910E2129
:102E1000029110218DF815108DF8160004218DF8FF
:102E2000171001218DF81810079002218DF8191044
:102E30008DF81A008DF820008DF82C008DF83200E6
:102E4000ADF82E00ADF830000D982146FFF716F8CA
:102E50000D98016841F4807101600EB010BD000052
:102E600010B5A6B0FDF7DEFCFFF7B4FBFFF7BAFF25
:102E7000FFF7BCF9FFE740F2B640C2F2000000786D
:102E8000012841D1FFE740F2B840C2F20000002122
:102E90000180FFE740F2B840C2F20000008801283C
:102EA00011DCFFE744F27C00C4F200000068000778
:102EB000002807D5FFE740F2B840C2F20000002129
:102EC0000180FFE7E6E740F2B600C2F200000078BA
:102ED000CC280BD1FFE740F2B600C2F20000007927
:102EE000EE2803D1FFE700F0C3F8FFE7FDF79AFCF7
:102EF00040F2B640C2F200000021017040F2B8403A
:102F0000C2F200000180B1E040F2B840C2F200001D
:102F10000088002800F0A980FFE740F2B840C2F224
:102F200000000088B0F57A7F59DBFFE740F26C01C2
:102F3000C2F2000113AC20464A22FDF7E7FB04F180
:102F4000100050F8042B694641F8042B50F8042B6C
:102F500041F8042B50F8042B41F8042B50F8042BB3
:102F600041F8042B50F8042B41F8042B50F8042BA3
:102F700041F8042B50F8042B41F8042B50F8042B93
:102F800041F8042B50F8042B41F8042B50F8042B83
:102F900041F8042B50F8042B41F8042B50F8042B73
:102FA00041F8042B50F8042B41F8042B50F8042B63
:102FB00041F8042B10F8012B01F8012B10F8012B1C
:102FC00001F8012B13981499159A169B00F07EF8BE
:102FD00040F2B840C2F200000021018044E040F21B
:102FE000B840C2F20000008864283CDBFFE740F2F2
:102FF0001404C2F200042068FDF7ACFB01F070F984
:10300000FDF7BBFB0F902068FDF7A4FB01F01AF958
:10301000FDF7B3FB10902068FDF79CFB01F060F911
:1030200081F00041FDF7A9FB11902068FDF792FBAC
:1030300001F008F981F00041FDF79FFB1290206834
:10304000FDF788FB49F69A12C9F6991249F69913C9
:10305000C3F6B973FDF7ADF8FDF78FFB20600FA83D
:1030600000F06AF8FFE7FFE7FFE7FFE703E700008C
:1030700083B040F26C00C2F20000029040F2B60051
:10308000C2F20000019001980078CC281BD1FFE724
:1030900001980079EE2816D1FFE7019840788DF865
:1030A0000300FFE79DF8030019280BDCFFE70198F8
:1030B0008178C07840EA012002999DF8032021F828
:1030C0001200FFE7FFE703B07047000084B0B0B51F
:1030D00082B0099308920791069006AD44F2C86049
:1030E000C0F60000BB2100F0F9F80195FFE7019858
:1030F00005F14A01884213D2FFE70198417844F272
:10310000C864C0F60004204600F0E8F80198018881
:10311000204600F0E3F8FFE7019802300190E6E76F
:1031200044F2C860C0F60000EE2100F0D7F802B00B
:10313000BDE8B04004B0704710B582B0019044F2D1
:10314000C860C0F60000AA2100F0C8F801980090FD
:10315000FFE700980199103188421ED2FFE70098DE
:10316000C17844F2C864C0F60004204600F0B6F806
:1031700000984188204600F0B1F800980068010AE4
:10318000204600F0ABF800980168204600F0A6F851
:10319000FFE7009804300090DBE744F2C860C0F617
:1031A0000000EE2100F09AF802B010BD81B08DF859
:1031B00003009DF9030000280FD4FFE79DF90300E9
:1031C00000F01F01012202FA01F140094EF2001243
:1031D000CEF2000242F82010FFE701B07047000075
:1031E0004EF60C50CEF200000068C0F3022070478B
:1031F00082B08DF8070000919DF9070000280AD4DD
:10320000FFE7009840019DF907104EF20042CEF210
:10321000000288540BE0009840019DF8071001F06F
:103220000F014EF61452CEF200028854FFE702B0AE
:103230007047000083B00290029800F007000090F1
:103240004EF60C50CEF200000168019101994FF644
:10325000FF02114001910199009A41EA02210022E6
:10326000C0F2FA52114301910199016003B0704715
:1032700080B582B001900091FFE744F29A60C0F6F9
:10328000000000F02BF80199009A44F2FB70C0F6A0
:10329000000000F023F844F61400C0F6000000F02F
:1032A0001DF8FFE7FFE7FEE780B582B001900091CF
:1032B000BDF80400FFF760FD019802B080BD00007A
:1032C00080B582B000200190FFF766FAFDF722FD7D
:1032D000FFF7FEFCFFF7C4FDFFE7FEE70FB4054B69
:1032E00010B503A9044A029800F014FC10BC5DF864
:1032F00014FB0000A932000818000020490050EA21
:10330000C12018BF04204A0D18BF40F0010040F250
:10331000FF72B2EB515F08BF40F00200012808BF06
:10332000052070472DE9F74F144694B00021C4E9F9
:1033300002111599079121F00045C9498D4206DC1B
:103340001599C4E9000117B00020BDE8F08FC54908
:10335000DFF814A3A9423CDD0799C44E0029C44FED
:10336000C44A1599534619DDFCF7C4FF554506D0EC
:10337000C14AC24BFCF7BEFFC4E900010AE04FF0AE
:10338000D352BE4BFCF7B6FF32463B46FCF7B2FFCA
:10339000C4E9000117B00120BDE8F08FFCF709FF78
:1033A000554506D0B44AB54BFCF703FFC4E900010C
:1033B0000AE04FF0D352B14BFCF7FBFE32463B46DE
:1033C000FCF7F7FEC4E9000117B04FF0FF30BDE88D
:1033D000F08FAB49A942159978DB21F00041834673
:1033E0008846A84AA84BFCF78BFF0022A74BFCF7A6
:1033F000E0FEFDF76CF90990FDF74BF906460F4624
:103400009C4A5346FCF77CFF43465A46FCF775FF3F
:1034100080468A46984A994B30463946FCF770FFF9
:103420002A0D01250B9242465346FCF766FF032DF9
:10343000C4E9000139D00B98C1F30A51401A05EBD9
:1034400045111139814230DA9148C346784400EB86
:103450000510CDF80CA00C90D0E900233046394679
:10346000FCF74EFF02460B4604910690584603991E
:10347000FCF740FF80468A4602460B4658460399B1
:10348000FCF738FF049B069AFCF734FF83460C9840
:1034900003913946D0E902233046FCF731FF5A4602
:1034A000039BFCF727FF6D1CBDE707980028A2BF10
:1034B000099817B0BDE8F08F616881F00041616044
:1034C000099817B04042BDE8F08FFFE78446159891
:1034D000C1F31301C0F30A50A0F2F5304FEA6018AF
:1034E00000F01F06C6F12000139000200690079000
:1034F00041F4801E05206D4676B1664A08EB000156
:103500007A4452F8213002EB8101B3404A681399A2
:1035100022FA01F1194305E05F4908EB0002794402
:1035200051F82210A1FB0E27A1FB0C131A449A425A
:1035300034BF0123002303EB070A05EB8003D3E923
:1035400001B70F448F4234BF0121002193448B44C3
:1035500011B1934502D903E0934501D2012100E066
:103560000021C3E901B7514445F82010011EA0F124
:103570000100C1DC0298059F00F10050800F1290FD
:103580000298DDE903568000FDF783F8834628465C
:103590000D91FDF78FF86FF01D02FDF763F8CDE98F
:1035A0000E013046FDF786F86FF03D02FDF75AF840
:1035B00080468A463846FDF77DF86FF05D02FDF7DC
:1035C00051F80746424653461191FCF7F2FDDDE9FA
:1035D0000E23FCF7EEFD5A460D9BFCF7EAFD002595
:1035E0000E465A4628460D9BFCF784FEDDE90E2365
:1035F000FCF780FE42465346FCF77CFE3A46119BA0
:10360000FCF77BFEDFF898A0244A5346FCF778FECF
:1036100007468846234A244B31462846FCF770FE6D
:103620003A464346FCF7C5FD074688464FF0A84298
:10363000534631462846FCF763FE3A464346FCF7BC
:10364000B8FD159A12F0004F04D0129A81F0004193
:1036500052421292C4E90001129817B0BDE8F08FEF
:10366000FB21E93F7CD90240FB21F93F7370032E17
:103670008A19A33B000040543163621A61B4D03D03
:10368000FB21394183C8C96D305FE43F0000E03F52
:10369000600F0000DC0E0000BE0E0000182D445428
:1036A000FB21F93D3326A611460B113C2DE9FF4DB8
:1036B00021F0004807460C46B8F1795F08DAFDF7BB
:1036C00006F8002801BF0020324904B0BDE8F08DA3
:1036D0003A46234610461946FCF712FE05460246B6
:1036E0002D480E460B460621784400F05DF82A4628
:1036F0003346FCF705FEDDE9022382468B46384659
:103700002146FCF7FDFD04460F4652465B4628461F
:103710003146FCF7F5FD22463B46FCF7EBFD07463C
:103720008A464FF0FF3228463146FCF79BFF1B4A82
:1037300090450ADA3A465346FCF7DCFD04B0002215
:10374000BDE8F04D134BFCF7D8BD154A4245A8BF64
:10375000A8F500154FF00004B8BF124D22462B46C5
:10376000FCF7C8FD0646884622462B46002009493C
:10377000FCF7C0FD04460D463A46534630464146E6
:10378000FCF7B8FD04B022462B46BDE8F04DFCF72F
:10379000B4BD00000000F03F940C00003333D33F71
:1037A0000000E93F0000D23F2DE9F0414F1E00EB41
:1037B000C7010446D1E9000115461E4637F006024E
:1037C0000DD02A463346FCF79BFD7F1E04EBC70352
:1037D000D3E90023FCF7EDFC37F00602F1D1022F0C
:1037E00025D0042F13D0062F18BFBDE8F0812A463C
:1037F0003346FCF785FDD4E90A23FCF7DAFC2A46B8
:103800003346FCF77DFDD4E90823FCF7D2FC2A46B9
:103810003346FCF775FDD4E90623FCF7CAFC2A46BB
:103820003346FCF76DFDD4E90423FCF7C2FC2A46BD
:103830003346FCF765FDD4E90223FCF7BAFC2A46BF
:103840003346FCF75DFDD4E90023BDE8F041FCF709
:10385000B0BC00002DE9FF4D054621F0004084B0CA
:103860000C46B0F1795F0BDA2846FFF747FD0428D4
:1038700008BF00F06FF8284608B02146BDE8F08D7B
:103880002A460B461046FCF73BFD06460F462A46E5
:103890002346FCF735FD804626488A4632463B469D
:1038A00005217844FFF780FF83461098029160B3AA
:1038B000214A224B40465146FCF722FDCDE900014A
:1038C0005A4640465146029BFCF71AFD82468846FE
:1038D000DDE906014FF0FF32FCF7C4FE52464346D5
:1038E000FCF708FD32463B46FCF70AFDDDE90623FE
:1038F000FCF700FDDDE90023FCF7FCFC08B02A46DC
:103900002346BDE8F04DFCF7F8BC0B465A4630465E
:103910003946FCF7F5FC084A084BFCF74AFC4246DE
:103920005346FCF7EDFC08B02A462346BDE8F04DAF
:10393000FCF73FBCDA0B0000495555555555C5BF3E
:103940000122FCF78FBE0022134610461146FCF7F9
:1039500049BD0000024A00201107FCF783BE0000A9
:1039600001FDFFFF02E008C8121F08C1002AFAD1BA
:1039700070477047002001E001C1121F002AFBD1EF
:1039800070470000014908607047000000000020F7
:103990002DE9FF5F82B00021DDE90430020DDDF882
:1039A00040B0034318D044F61050A2F2FF32424315
:1039B0001514119801281FD0A5EB0B00401C5FEADD
:1039C000000A4FF000064E4FDFF83891B0465046DF
:1039D00015D5CAF1000413E0119801244AA3012867
:1039E00001D16FEA0B010298119AC0E90031C0E9D8
:1039F000024206B0BDE8F09FCBF10000DFE70446CD
:103A00000021404A491842EB0450CDE9001012E071
:103A1000E00707D032463B4640464946FCF770FC7B
:103A20008046894632463B4610461946FCF768FCFC
:103A300006460F466410002CEAD1DDE90401DDE9F9
:103A40000023BAF1000F06DAFCF75AFC42464B4657
:103A5000FCF756FC05E0FCF7C5FC42464B46FCF77C
:103A6000C1FC04460E460022284BFCF743FD03D858
:103A70004FF0FF30014607E00022254B204631463B
:103A8000FCF797FBFCF71DFD102409E0002C0ADB76
:103A90000A220023FCF75CFB039B30321A55641E9C
:103AA00050EA0102F2D1641C039AC4F111031444D8
:103AB000119A012A03D0012208430DD10AE00843DC
:103AC00004D000204FF0110B119072E7A3EB0B050F
:103AD0006D1E0DE05B4504DD4FF0000205F10105B0
:103AE00004E003DA4FF00002A5F10105002AECD052
:103AF00002981199C0E90231C0E9004579E7000058
:103B0000000014400000F03F300000000000F043CF
:103B10000000E03F2DE9FF4F95B09B4689460646E1
:103B200000250FE2252877D100242746F84A0121F5
:103B3000059400E0044316F8013F203B01FA03F02E
:103B40001042F7D130782A2811D06FF02F03307847
:103B5000A0F13002092A16D8059A44F0020402EBBB
:103B6000820203EB42021044761C0590EFE759F8FD
:103B7000042B0592002A03DA504244F400540590C5
:103B800044F00204761C30782E2816D116F8010F66
:103B900044F004042A280DD06FF02F023078A0F1F1
:103BA0003003092B09D807EB870302EB4303C7183F
:103BB000761CF3E759F8047B761C30786C280FD01C
:103BC00006DC4C2817D068280DD06A2814D104E0F0
:103BD000742810D07A280FD10DE044F400140AE0C4
:103BE00044F4801401E044F440147278824202D11B
:103BF00004F58014761C761C307866280BD013DC14
:103C0000582877D009DC002875D04528F6D04628FA
:103C1000F4D047281AD19DE118E0632835D06428F4
:103C200079D0652812D195E1702873D008DC672817
:103C3000F1D069286FD06E280DD06F2806D1B5E07D
:103C400073282CD0752875D0782874D05A461799C7
:103C500090476D1C75E1C4F30250022809D0032877
:103C60000DD0D9F8001004280DD00D6009F1040919
:103C700067E1D9F80010EA17C1E90052F6E7D9F870
:103C800000100D80F2E70D70F0E719F8041B8DF8B5
:103C9000001000208DF80100EA46012003E059F8E9
:103CA00004AB4FF0FF3061074FF0000102D40DE08C
:103CB00008F101018846B9420FDA8045F8DB1AF8AD
:103CC00008100029F4D108E008F10101884681427A
:103CD000FADB1AF808100029F6D105985B46A0EB2C
:103CE000080721463846179A00F094FA284400EB5A
:103CF000080507E04DE029E10DE01AF8010B5A46EE
:103D000017999047B8F10108F7D25B46214638462B
:103D1000179A13E142E00A220092C4F302524FF0D4
:103D2000000A022A08D059F804CB032A4FEAEC71A2
:103D30000AD00DE029E02AE009F1070121F007028D
:103D4000F2E802C1914609E00FFA8CFC4FEAEC71EF
:103D5000042A03D14FFA8CFC4FEAEC71002907DAF0
:103D60000A460021DCF1000C61EB02012D2202E089
:103D7000220504D52B228DF80420012203E0E2075E
:103D800001D02022F7E7904659E00A2102E01022F4
:103D90000DE010214FF0000A00910BE010224FF0CF
:103DA000000A44F004040827009203E008224FF0C0
:103DB000000A0092C4F30252022A05D059F804CB3B
:103DC0000021032A08D009E009F1070121F00702C8
:103DD000F2E802C1914605E01FFA8CFC042A01D1E9
:103DE0000CF0FF0C4FF00008220728D5702806D0F1
:103DF000009B83F0100353EA0A0305D00EE0402233
:103E00008DF80420012208E05CEA010206D030228D
:103E10008DF804208DF8050002229046009B83F067
:103E2000080353EA0A030AD15CEA010201D16207DE
:103E300005D530228DF804204FF001087F1E582848
:103E400004D034A003900EA802900DE036A0F9E74C
:103E500053466046009AFCF77BF984460398825CDF
:103E60000298401E029002705CEA0100F0D10298B4
:103E700006A9081A00F1200A600702D524F480344C
:103E800000E00127574502DDA7EB0A0000E0002013
:103E900000EB0A01009005984144401A0590E003A8
:103EA00006D45B462146179A059800F0B3F90544FD
:103EB000002706E001A85A46C05D179990476D1C7F
:103EC0007F1C4745F6DBE0030CD55B462146179A7D
:103ED000059800F09FF9054404E030205A461799F0
:103EE00090476D1C0099481E00900029F5DC08E001
:103EF000029802995A460078491C029117999047F6
:103F00006D1CBAF10001AAF1010AF1DC65E10000C3
:103F1000092801003031323334353637383961629F
:103F20006364656600000000303132333435363763
:103F300038394142434445460000000000F058F93A
:103F40000544761C307800287FF4ECAD19B0284683
:103F5000BDE8F08F620700D4062709F1070222F0BE
:103F6000070CFCE80223E14603F000485FEA080C76
:103F700002D00FF2702C0DE05FEA045C02D50FF264
:103F8000682C07E05FEAC47C02D00FF2602C01E0ED
:103F9000AFF2700C4FF0FF3823F00043CDF850C063
:103FA00065280CD006DC452809D046281DD04728B6
:103FB0003DD13DE0662818D067287ED138E0002149
:103FC000112F01DB112000E0781CCDE9000106A9CA
:103FD0000EA8FFF7DDFCDDE90F010E9A0391002129
:103FE000009207F1010A04914DE04FF00040009764
:103FF000CDE9011006A90EA8FFF7CAFCDDE90F0202
:1040000003920E9B11990022DDF80CA000930492FC
:1040100011B9791C00EB010AB7EB0A0004D4C0F116
:10402000FF3007F1010A0490AAEB0700019044E079
:10403000012F00DA01270021112F01DD112000E0FE
:104040003846CDE9000106A90EA8FFF7A1FCDDE97D
:104050000F010E9A0391002104910092BA462107A4
:104060000CD40399514500DA8A46BAF1010F05DDF7
:10407000009AAAF10101515C302908D0B84202DA55
:1040800010F1040F06DA0121CDE9011015E0AAF1C3
:104090000101E9E7002805DC049901440491AAEB39
:1040A000000102E0411C514500DD8A460499401A96
:1040B000401C01904FF000400290200704D401986A
:1040C000504501DBCDF8048000208DF84F000298A8
:1040D0000DF14F07B0F1004F25D02B200E90029824
:1040E0004FF0020800280CDA404202902D200E907A
:1040F00007E00A210298FCF715F83031029007F822
:10410000011DB8F10001A8F10108F2DC02980028B5
:10411000EFD1791E0E980870307800F0200040F042
:10412000450007F8020D12A8C01B00F107081498FB
:10413000007800B1012000EB0A01019801EBE07169
:1041400005984144401A401E0590E00306D45B46A2
:104150002146179A059800F05DF8054414980078F8
:1041600018B15A46179990476D1CE00324D55B4659
:104170002146179A059800F04DF805441CE0049874
:10418000002807DBDDE90301884203DD0098405C7D
:10419000179901E0179930205A469047049805F185
:1041A0000105401C04900198401E019004D12E206E
:1041B0005A46179990476D1CBAF10001AAF1010AFD
:1041C000DDDC05E017F8010B5A46179990476D1C86
:1041D000B8F10001A8F10108F4DC5B462146179A0A
:1041E0000598ABE62D0000002B0000002000000029
:1041F0002DE9F041044600251E461746880404D4E4
:1042000005E039462020B0476D1C641EF9D52846CC
:10421000BDE8F0812DE9F041044600251E46904698
:10422000C80301D5302700E02027880404D505E025
:1042300041463846B0476D1C641EF9D52846BDE896
:10424000F081000000B5244B21F0004287B09A4273
:10425000DCBF0022134629DD204B9A4208D140B929
:104260004FF00100FFF78EFBFFF76DFB07B000BDBD
:1042700003DBFFF765FB07B000BD02AAFFF752F8AA
:1042800010F0030104BF0DF1080C9CE80F000DD0E5
:10429000012001290ED0022914D00DF1080C009044
:1042A0009CE80F00FFF7D6FA07B000BDFFF7FEF954
:1042B00007B000BD0DF1080C00909CE80F00FFF75F
:1042C000C9FA05E00DF1080C9CE80F00FFF7EEF9C4
:1042D00007B081F0004100BDFB21E93F0000F07F05
:1042E00000B5254B21F0004287B09A4203DC002242
:1042F000134600922BE0214B9A4208D140B94FF06F
:104300000100FFF73FFBFFF71EFB07B000BD03DB1B
:10431000FFF716FB07B000BD02AAFFF703F810F085
:1043200003014FF001000DD0012914D002291AD049
:104330000DF1080C9CE80F00FFF7B8F907B081F009
:10434000004100BD0DF1080C00909CE80F00FFF744
:1043500081FA07B000BD0DF1080C9CE80F00FFF7D3
:10436000A5F907B000BD0DF1080C00909CE80F0006
:10437000FFF770FAE2E70000FB21E93F0000F07F61
:104380004C5555555555A53F7751C1166CC156BF73
:104390009015CB19A001FA3EAD529C804F7E92BE83
:1043A000C4B1B4BD9EEE213ED43888BEE9FAA8BDA2
:1043B00000004054FB21F93F3163621A61B4D03DE3
:1043C0000000601A61B4D03D7370032E8A19A33BBC
:1043D0000000002E8A19A33BC14920259A837B390E
:1043E00000000000000000006E83F9A22915444E71
:1043F000D15727FCC0DD34F5999562DB4190433CF1
:10440000AB6351FE61C5BBDE3A6E24B7E0D24D42CC
:10441000EA2E49061C92D1091CEB1DFE3EA729B1CC
:10442000F53582E88444BB2E26709CE9417E5FB45A
:1044300039D69139F43953838B5F849C3B28F9BD7D
:10444000FF97F81F0F9805DE8B112FEF1F6D0A5A8B
:10445000CF7E366DB709CB27663F464F2DEA5F9E6C
:10446000C7BA27757BF1E5EBF739073DEA92528A27
:10447000B15FFB6B085D8D1F4630035600000000E6
:10448000A6F810111111813FD561C119A0012ABFF1
:104490007DFEB157E31DC73EEB9C2B8AE6E55ABE75
:1044A0007CD5CF5A3AD9E53D43616E2774206469C3
:1044B000766973696F6E20256420535953434C4BC2
:1044C0002066726F6D20256420536F7572636520BE
:1044D000434C4B210A005359534354524C204354EC
:1044E000524C20526567206973204C6F636B2C20FF
:1044F000706C6561736520756E6C6F636B20697499
:10450000206265666F72652063616C6C20746869F7
:10451000732066756E6374696F6E210A00504C4C8F
:104520003020506F73742044697620436F6E666943
:10453000672D5B25645D204572726F72210A005001
:104540004C4C30205072652D44697620436F6E6666
:1045500069672D5B25645D204572726F72210A00C8
:10456000504C4C3020434C4B20536F757263652088
:1045700053656C6563742D5B25645D204572726FB5
:1045800072210A00535953434C4B20536F75726389
:10459000652053656C6563742D5B25645D204572F1
:1045A000726F72210A0045464C41534820434C4BE0
:1045B000206469762D5B25645D20636F6E66696794
:1045C000206572726F72210A00504C4C3020636F6C
:1045D0006E66696720706172616D73206572726FBB
:1045E00072210A0046504C4C2044697620636F6E5D
:1045F00066696720706172616D73206572726F7297
:10460000210A00535953434C4B20696E6974207042
:104610006172616D73206572726F72210A00446F5E
:104620006E2774206D6174636820706C6C305F69F4
:104630006E5F667265712D5B25645D20746F206707
:10464000656E657261746520706C6C305F6F757437
:104650005F667265712D5B25645D2C20706C6561F1
:104660007365206164642074686520636F6E666999
:104670006720746F207379736374726C5F706C6CF5
:104680005F636667206172726179210A00626175F9
:1046900064526174653A25640A005B4540444247B0
:1046A0005D20005B454046504C4C5D20005B454022
:1046B0005359534354524C5D20005B44405573653D
:1046C0007220544D525D20002563002E2E2F2E2E79
:1046D0002F2E2E2F447269766572732F5441453305
:1046E0003246353378785F4472697665722F53723B
:1046F000632F746165333266353378785F6C6C5F35
:104700007379736374726C2E63002E2E2F2E2E2FEE
:104710002E2E2F447269766572732F5441453332C1
:1047200046353378785F4472697665722F537263C9
:104730002F746165333266353378785F6C6C5F67F0
:1047400070696F2E63002E2E2F2E2E2F2E2E2F44AB
:104750007269766572732F5441453332463533782A
:10476000785F4472697665722F5372632F74616546
:10477000333266353378785F6C6C5F746D722E639C
:10478000002E2E2F2E2E2F2E2E2F4472697665721C
:10479000732F544145333246353378785F4472691C
:1047A0007665722F5372632F7461653332663533C9
:1047B00078785F6C6C5F756172742E63002E2E2F9B
:1047C0002E2E2F2E2E2F447269766572732F544130
:1047D00045333246353378785F4472697665722F97
:1047E0005372632F746165333266353378785F6C4A
:1047F0006C5F636F727465782E6300E59CA8257307
:10480000E8A18C2564E4B8ADE696ADE8A880E5A4FF
:10481000B1E8B4A50000000000127A0000E1F5053F
:104820000100060000400000000000000000080039
:1048300000127A0080778E060100060000E000007A
:10484000000000000000080000127A00000E270798
:1048500001000700008000000000000000000800C8
:1048600000127A0080A4BF070100080000200000A9
:10487000000000000000080000127A00003B580809
:104880000100080000C00000000020000000080037
:1048900000127A0080D1F0080100090000600000D9
:1048A000000020000000080000127A00006889095A
:1048B00001000A00000000000000200000000800C5
:1048C00000127A0080FE210A01000A0000A0000008
:1048D000000020000000080000127A000095BA0ACB
:1048E00001000B0000400000000040000000080034
:1048F00000127A00802B530B01000B0000E0000037
:10490000000040000000080000127A0000C2EB0B1B
:1049100001000C00008000000000400000000800C2
:10492000001BB7000095BA0A0100070000800000D4
:10493000000040000000080000127A008058840C3B
:1049400001000D00002000000000600000000800D1
:1049500000127A0000EF1C0D01000D0000C00000E5
:10496000000060000000080000127A008085B50D8C
:1049700001000E0000600000000060000000080060
:10498000A0490008000000200C0000006439000865
:10499000AC4900080C000020B8040000743900087D
:0C49A00000000000FFFFFFFF007D000092
:0400000508000111DD
:00000001FF
